{
  "_format": "hh-sol-artifact-1",
  "contractName": "MyEpicNFT",
  "sourceName": "contracts/MyEpicNFT.sol",
  "abi": [
    {
      "inputs": [],
      "stateMutability": "nonpayable",
      "type": "constructor"
    },
    {
      "anonymous": false,
      "inputs": [
        {
          "indexed": true,
          "internalType": "address",
          "name": "owner",
          "type": "address"
        },
        {
          "indexed": true,
          "internalType": "address",
          "name": "approved",
          "type": "address"
        },
        {
          "indexed": true,
          "internalType": "uint256",
          "name": "tokenId",
          "type": "uint256"
        }
      ],
      "name": "Approval",
      "type": "event"
    },
    {
      "anonymous": false,
      "inputs": [
        {
          "indexed": true,
          "internalType": "address",
          "name": "owner",
          "type": "address"
        },
        {
          "indexed": true,
          "internalType": "address",
          "name": "operator",
          "type": "address"
        },
        {
          "indexed": false,
          "internalType": "bool",
          "name": "approved",
          "type": "bool"
        }
      ],
      "name": "ApprovalForAll",
      "type": "event"
    },
    {
      "anonymous": false,
      "inputs": [
        {
          "indexed": false,
          "internalType": "address",
          "name": "sender",
          "type": "address"
        },
        {
          "indexed": false,
          "internalType": "uint256",
          "name": "tokenId",
          "type": "uint256"
        }
      ],
      "name": "NewEpicNFTMinted",
      "type": "event"
    },
    {
      "anonymous": false,
      "inputs": [
        {
          "indexed": true,
          "internalType": "address",
          "name": "from",
          "type": "address"
        },
        {
          "indexed": true,
          "internalType": "address",
          "name": "to",
          "type": "address"
        },
        {
          "indexed": true,
          "internalType": "uint256",
          "name": "tokenId",
          "type": "uint256"
        }
      ],
      "name": "Transfer",
      "type": "event"
    },
    {
      "inputs": [
        {
          "internalType": "address",
          "name": "to",
          "type": "address"
        },
        {
          "internalType": "uint256",
          "name": "tokenId",
          "type": "uint256"
        }
      ],
      "name": "approve",
      "outputs": [],
      "stateMutability": "nonpayable",
      "type": "function"
    },
    {
      "inputs": [
        {
          "internalType": "address",
          "name": "owner",
          "type": "address"
        }
      ],
      "name": "balanceOf",
      "outputs": [
        {
          "internalType": "uint256",
          "name": "",
          "type": "uint256"
        }
      ],
      "stateMutability": "view",
      "type": "function"
    },
    {
      "inputs": [
        {
          "internalType": "uint256",
          "name": "tokenId",
          "type": "uint256"
        }
      ],
      "name": "getApproved",
      "outputs": [
        {
          "internalType": "address",
          "name": "",
          "type": "address"
        }
      ],
      "stateMutability": "view",
      "type": "function"
    },
    {
      "inputs": [],
      "name": "getTotalNFTsMinted",
      "outputs": [
        {
          "internalType": "uint256",
          "name": "",
          "type": "uint256"
        }
      ],
      "stateMutability": "view",
      "type": "function"
    },
    {
      "inputs": [
        {
          "internalType": "address",
          "name": "owner",
          "type": "address"
        },
        {
          "internalType": "address",
          "name": "operator",
          "type": "address"
        }
      ],
      "name": "isApprovedForAll",
      "outputs": [
        {
          "internalType": "bool",
          "name": "",
          "type": "bool"
        }
      ],
      "stateMutability": "view",
      "type": "function"
    },
    {
      "inputs": [],
      "name": "makeAnEpicNFT",
      "outputs": [],
      "stateMutability": "nonpayable",
      "type": "function"
    },
    {
      "inputs": [],
      "name": "name",
      "outputs": [
        {
          "internalType": "string",
          "name": "",
          "type": "string"
        }
      ],
      "stateMutability": "view",
      "type": "function"
    },
    {
      "inputs": [
        {
          "internalType": "uint256",
          "name": "tokenId",
          "type": "uint256"
        }
      ],
      "name": "ownerOf",
      "outputs": [
        {
          "internalType": "address",
          "name": "",
          "type": "address"
        }
      ],
      "stateMutability": "view",
      "type": "function"
    },
    {
      "inputs": [
        {
          "internalType": "uint256",
          "name": "tokenId",
          "type": "uint256"
        }
      ],
      "name": "pickRandomColor",
      "outputs": [
        {
          "internalType": "string",
          "name": "",
          "type": "string"
        }
      ],
      "stateMutability": "view",
      "type": "function"
    },
    {
      "inputs": [
        {
          "internalType": "uint256",
          "name": "tokenId",
          "type": "uint256"
        }
      ],
      "name": "pickRandomFirstWord",
      "outputs": [
        {
          "internalType": "string",
          "name": "",
          "type": "string"
        }
      ],
      "stateMutability": "view",
      "type": "function"
    },
    {
      "inputs": [
        {
          "internalType": "uint256",
          "name": "tokenId",
          "type": "uint256"
        }
      ],
      "name": "pickRandomSecondWord",
      "outputs": [
        {
          "internalType": "string",
          "name": "",
          "type": "string"
        }
      ],
      "stateMutability": "view",
      "type": "function"
    },
    {
      "inputs": [
        {
          "internalType": "uint256",
          "name": "tokenId",
          "type": "uint256"
        }
      ],
      "name": "pickRandomThirdWord",
      "outputs": [
        {
          "internalType": "string",
          "name": "",
          "type": "string"
        }
      ],
      "stateMutability": "view",
      "type": "function"
    },
    {
      "inputs": [
        {
          "internalType": "address",
          "name": "from",
          "type": "address"
        },
        {
          "internalType": "address",
          "name": "to",
          "type": "address"
        },
        {
          "internalType": "uint256",
          "name": "tokenId",
          "type": "uint256"
        }
      ],
      "name": "safeTransferFrom",
      "outputs": [],
      "stateMutability": "nonpayable",
      "type": "function"
    },
    {
      "inputs": [
        {
          "internalType": "address",
          "name": "from",
          "type": "address"
        },
        {
          "internalType": "address",
          "name": "to",
          "type": "address"
        },
        {
          "internalType": "uint256",
          "name": "tokenId",
          "type": "uint256"
        },
        {
          "internalType": "bytes",
          "name": "_data",
          "type": "bytes"
        }
      ],
      "name": "safeTransferFrom",
      "outputs": [],
      "stateMutability": "nonpayable",
      "type": "function"
    },
    {
      "inputs": [
        {
          "internalType": "address",
          "name": "operator",
          "type": "address"
        },
        {
          "internalType": "bool",
          "name": "approved",
          "type": "bool"
        }
      ],
      "name": "setApprovalForAll",
      "outputs": [],
      "stateMutability": "nonpayable",
      "type": "function"
    },
    {
      "inputs": [
        {
          "internalType": "bytes4",
          "name": "interfaceId",
          "type": "bytes4"
        }
      ],
      "name": "supportsInterface",
      "outputs": [
        {
          "internalType": "bool",
          "name": "",
          "type": "bool"
        }
      ],
      "stateMutability": "view",
      "type": "function"
    },
    {
      "inputs": [],
      "name": "symbol",
      "outputs": [
        {
          "internalType": "string",
          "name": "",
          "type": "string"
        }
      ],
      "stateMutability": "view",
      "type": "function"
    },
    {
      "inputs": [
        {
          "internalType": "uint256",
          "name": "tokenId",
          "type": "uint256"
        }
      ],
      "name": "tokenURI",
      "outputs": [
        {
          "internalType": "string",
          "name": "",
          "type": "string"
        }
      ],
      "stateMutability": "view",
      "type": "function"
    },
    {
      "inputs": [
        {
          "internalType": "address",
          "name": "from",
          "type": "address"
        },
        {
          "internalType": "address",
          "name": "to",
          "type": "address"
        },
        {
          "internalType": "uint256",
          "name": "tokenId",
          "type": "uint256"
        }
      ],
      "name": "transferFrom",
      "outputs": [],
      "stateMutability": "nonpayable",
      "type": "function"
    }
  ],
  "bytecode": "0x608060405260405180610100016040528060d3815260200162004e1a60d39139600890805190602001906200003692919062000db8565b5060405180608001604052806056815260200162004eed60569139600990805190602001906200006892919062000db8565b506040518061018001604052806040518060400160405280600981526020017f46616e746173746963000000000000000000000000000000000000000000000081525081526020016040518060400160405280600481526020017f457069630000000000000000000000000000000000000000000000000000000081525081526020016040518060400160405280600881526020017f5465727269626c6500000000000000000000000000000000000000000000000081525081526020016040518060400160405280600581526020017f4372617a7900000000000000000000000000000000000000000000000000000081525081526020016040518060400160405280600481526020017f57696c640000000000000000000000000000000000000000000000000000000081525081526020016040518060400160405280600a81526020017f54657272696679696e670000000000000000000000000000000000000000000081525081526020016040518060400160405280600681526020017f53706f6f6b79000000000000000000000000000000000000000000000000000081525081526020016040518060400160405280600681526020017f536c6f707079000000000000000000000000000000000000000000000000000081525081526020016040518060400160405280600581526020017f526f75676800000000000000000000000000000000000000000000000000000081525081526020016040518060400160405280600481526020017f436f7a790000000000000000000000000000000000000000000000000000000081525081526020016040518060400160405280600881526020017f536c69707065727900000000000000000000000000000000000000000000000081525081526020016040518060400160405280600381526020017f5765740000000000000000000000000000000000000000000000000000000000815250815250600a90600c6200034992919062000e49565b506040518061018001604052806040518060400160405280600781526020017f43757063616b650000000000000000000000000000000000000000000000000081525081526020016040518060400160405280600581526020017f50697a7a6100000000000000000000000000000000000000000000000000000081525081526020016040518060400160405280600981526020017f4d696c6b7368616b65000000000000000000000000000000000000000000000081525081526020016040518060400160405280600581526020017f437572727900000000000000000000000000000000000000000000000000000081525081526020016040518060400160405280600781526020017f436869636b656e0000000000000000000000000000000000000000000000000081525081526020016040518060400160405280600881526020017f53616e647769636800000000000000000000000000000000000000000000000081525081526020016040518060400160405280600581526020017f53616c616400000000000000000000000000000000000000000000000000000081525081526020016040518060400160405280600581526020017f537573686900000000000000000000000000000000000000000000000000000081525081526020016040518060400160405280600781526020017f436172616d656c0000000000000000000000000000000000000000000000000081525081526020016040518060400160405280600581526020017f427265616400000000000000000000000000000000000000000000000000000081525081526020016040518060400160405280600681526020017f506f7461746f000000000000000000000000000000000000000000000000000081525081526020016040518060400160405280600581526020017f4c656d6f6e000000000000000000000000000000000000000000000000000000815250815250600b90600c6200062a92919062000e49565b506040518061018001604052806040518060400160405280600481526020017f446f67650000000000000000000000000000000000000000000000000000000081525081526020016040518060400160405280600481526020017f46726f670000000000000000000000000000000000000000000000000000000081525081526020016040518060400160405280600581526020017f536c6f746800000000000000000000000000000000000000000000000000000081525081526020016040518060400160405280600581526020017f4d6f75736500000000000000000000000000000000000000000000000000000081525081526020016040518060400160405280600881526020017f506c61747970757300000000000000000000000000000000000000000000000081525081526020016040518060400160405280600581526020017f44696e676f00000000000000000000000000000000000000000000000000000081525081526020016040518060400160405280600581526020017f4b6f616c6100000000000000000000000000000000000000000000000000000081525081526020016040518060400160405280600481526020017f4d6f6c650000000000000000000000000000000000000000000000000000000081525081526020016040518060400160405280600881526020017f537175697272656c00000000000000000000000000000000000000000000000081525081526020016040518060400160405280600581526020017f4f7474657200000000000000000000000000000000000000000000000000000081525081526020016040518060400160405280600581526020017f4d6f6f736500000000000000000000000000000000000000000000000000000081525081526020016040518060400160405280600681526020017f416c706163610000000000000000000000000000000000000000000000000000815250815250600c90600c6200090b92919062000e49565b506040518061018001604052806040518060400160405280600781526020017f236166303032610000000000000000000000000000000000000000000000000081525081526020016040518060400160405280600781526020017f233030333038660000000000000000000000000000000000000000000000000081525081526020016040518060400160405280600781526020017f236334363231300000000000000000000000000000000000000000000000000081525081526020016040518060400160405280600781526020017f236166303039350000000000000000000000000000000000000000000000000081525081526020016040518060400160405280600781526020017f233030616639320000000000000000000000000000000000000000000000000081525081526020016040518060400160405280600781526020017f233966326236380000000000000000000000000000000000000000000000000081525081526020016040518060400160405280600781526020017f233864623630300000000000000000000000000000000000000000000000000081525081526020016040518060400160405280600781526020017f233834316232640000000000000000000000000000000000000000000000000081525081526020016040518060400160405280600781526020017f233931356338330000000000000000000000000000000000000000000000000081525081526020016040518060400160405280600781526020017f233362343434620000000000000000000000000000000000000000000000000081525081526020016040518060400160405280600781526020017f236666393936360000000000000000000000000000000000000000000000000081525081526020016040518060400160405280600781526020017f2339663831373000000000000000000000000000000000000000000000000000815250815250600d90600c62000bec92919062000e49565b5034801562000bfa57600080fd5b506040518060400160405280600981526020017f5371756172654e465400000000000000000000000000000000000000000000008152506040518060400160405280600681526020017f5351554152450000000000000000000000000000000000000000000000000000815250816000908051906020019062000c7f92919062000db8565b50806001908051906020019062000c9892919062000db8565b50505062000ce66040518060400160405280601881526020017f54686973206973206d79204e465420636f6e74726163742e000000000000000081525062000cec60201b620012d41760201c565b6200106a565b62000d8c8160405160240162000d03919062000f7e565b6040516020818303038152906040527f41304fac000000000000000000000000000000000000000000000000000000007bffffffffffffffffffffffffffffffffffffffffffffffffffffffff19166020820180517bffffffffffffffffffffffffffffffffffffffffffffffffffffffff838183161783525050505062000d8f60201b60201c565b50565b60008151905060006a636f6e736f6c652e6c6f679050602083016000808483855afa5050505050565b82805462000dc69062000ff4565b90600052602060002090601f01602090048101928262000dea576000855562000e36565b82601f1062000e0557805160ff191683800117855562000e36565b8280016001018555821562000e36579182015b8281111562000e3557825182559160200191906001019062000e18565b5b50905062000e45919062000eb0565b5090565b82805482825590600052602060002090810192821562000e9d579160200282015b8281111562000e9c57825182908051906020019062000e8b92919062000db8565b509160200191906001019062000e6a565b5b50905062000eac919062000ecf565b5090565b5b8082111562000ecb57600081600090555060010162000eb1565b5090565b5b8082111562000ef3576000818162000ee9919062000ef7565b5060010162000ed0565b5090565b50805462000f059062000ff4565b6000825580601f1062000f19575062000f3a565b601f01602090049060005260206000209081019062000f39919062000eb0565b5b50565b600062000f4a8262000fa2565b62000f56818562000fad565b935062000f6881856020860162000fbe565b62000f738162001059565b840191505092915050565b6000602082019050818103600083015262000f9a818462000f3d565b905092915050565b600081519050919050565b600082825260208201905092915050565b60005b8381101562000fde57808201518184015260208101905062000fc1565b8381111562000fee576000848401525b50505050565b600060028204905060018216806200100d57607f821691505b602082108114156200102457620010236200102a565b5b50919050565b7f4e487b7100000000000000000000000000000000000000000000000000000000600052602260045260246000fd5b6000601f19601f8301169050919050565b613da0806200107a6000396000f3fe608060405234801561001057600080fd5b50600436106101215760003560e01c806370a08231116100ad578063b88d4fde11610071578063b88d4fde14610340578063c575757a1461035c578063c87b56dd1461038c578063de9d132f146103bc578063e985e9c5146103c657610121565b806370a082311461028857806395d89b41146102b8578063a22cb465146102d6578063b187301f146102f2578063b4c3b8be1461032257610121565b806323b872dd116100f457806323b872dd146101c05780632de38d68146101dc57806342842e0e1461020c578063514dc8c6146102285780636352211e1461025857610121565b806301ffc9a71461012657806306fdde0314610156578063081812fc14610174578063095ea7b3146101a4575b600080fd5b610140600480360381019061013b9190612700565b6103f6565b60405161014d9190612ed1565b60405180910390f35b61015e6104d8565b60405161016b9190612eec565b60405180910390f35b61018e60048036038101906101899190612752565b61056a565b60405161019b9190612e41565b60405180910390f35b6101be60048036038101906101b991906126c4565b6105ef565b005b6101da60048036038101906101d591906125be565b610707565b005b6101f660048036038101906101f19190612752565b610767565b6040516102039190612eec565b60405180910390f35b610226600480360381019061022191906125be565b610885565b005b610242600480360381019061023d9190612752565b6108a5565b60405161024f9190612eec565b60405180910390f35b610272600480360381019061026d9190612752565b6109c3565b60405161027f9190612e41565b60405180910390f35b6102a2600480360381019061029d9190612559565b610a75565b6040516102af919061316c565b60405180910390f35b6102c0610b2d565b6040516102cd9190612eec565b60405180910390f35b6102f060048036038101906102eb9190612688565b610bbf565b005b61030c60048036038101906103079190612752565b610bd5565b6040516103199190612eec565b60405180910390f35b61032a610cf3565b604051610337919061316c565b60405180910390f35b61035a6004803603810190610355919061260d565b610d09565b005b61037660048036038101906103719190612752565b610d6b565b6040516103839190612eec565b60405180910390f35b6103a660048036038101906103a19190612752565b610e89565b6040516103b39190612eec565b60405180910390f35b6103c4610fdb565b005b6103e060048036038101906103db9190612582565b611240565b6040516103ed9190612ed1565b60405180910390f35b60007f80ac58cd000000000000000000000000000000000000000000000000000000007bffffffffffffffffffffffffffffffffffffffffffffffffffffffff1916827bffffffffffffffffffffffffffffffffffffffffffffffffffffffff191614806104c157507f5b5e139f000000000000000000000000000000000000000000000000000000007bffffffffffffffffffffffffffffffffffffffffffffffffffffffff1916827bffffffffffffffffffffffffffffffffffffffffffffffffffffffff1916145b806104d157506104d08261136d565b5b9050919050565b6060600080546104e790613400565b80601f016020809104026020016040519081016040528092919081815260200182805461051390613400565b80156105605780601f1061053557610100808354040283529160200191610560565b820191906000526020600020905b81548152906001019060200180831161054357829003601f168201915b5050505050905090565b6000610575826113d7565b6105b4576040517f08c379a00000000000000000000000000000000000000000000000000000000081526004016105ab906130cc565b60405180910390fd5b6004600083815260200190815260200160002060009054906101000a900473ffffffffffffffffffffffffffffffffffffffff169050919050565b60006105fa826109c3565b90508073ffffffffffffffffffffffffffffffffffffffff168373ffffffffffffffffffffffffffffffffffffffff16141561066b576040517f08c379a00000000000000000000000000000000000000000000000000000000081526004016106629061310c565b60405180910390fd5b8073ffffffffffffffffffffffffffffffffffffffff1661068a611443565b73ffffffffffffffffffffffffffffffffffffffff1614806106b957506106b8816106b3611443565b611240565b5b6106f8576040517f08c379a00000000000000000000000000000000000000000000000000000000081526004016106ef9061300c565b60405180910390fd5b610702838361144b565b505050565b610718610712611443565b82611504565b610757576040517f08c379a000000000000000000000000000000000000000000000000000000000815260040161074e9061312c565b60405180910390fd5b6107628383836115e2565b505050565b6060600061079b61077784611849565b6040516020016107879190612ddb565b6040516020818303038152906040526119f6565b9050600a80549050816107ae91906134ac565b9050600a81815481106107ea577f4e487b7100000000000000000000000000000000000000000000000000000000600052603260045260246000fd5b9060005260206000200180546107ff90613400565b80601f016020809104026020016040519081016040528092919081815260200182805461082b90613400565b80156108785780601f1061084d57610100808354040283529160200191610878565b820191906000526020600020905b81548152906001019060200180831161085b57829003601f168201915b5050505050915050919050565b6108a083838360405180602001604052806000815250610d09565b505050565b606060006108d96108b584611849565b6040516020016108c59190612e1f565b6040516020818303038152906040526119f6565b9050600d80549050816108ec91906134ac565b9050600d8181548110610928577f4e487b7100000000000000000000000000000000000000000000000000000000600052603260045260246000fd5b90600052602060002001805461093d90613400565b80601f016020809104026020016040519081016040528092919081815260200182805461096990613400565b80156109b65780601f1061098b576101008083540402835291602001916109b6565b820191906000526020600020905b81548152906001019060200180831161099957829003601f168201915b5050505050915050919050565b6000806002600084815260200190815260200160002060009054906101000a900473ffffffffffffffffffffffffffffffffffffffff169050600073ffffffffffffffffffffffffffffffffffffffff168173ffffffffffffffffffffffffffffffffffffffff161415610a6c576040517f08c379a0000000000000000000000000000000000000000000000000000000008152600401610a639061304c565b60405180910390fd5b80915050919050565b60008073ffffffffffffffffffffffffffffffffffffffff168273ffffffffffffffffffffffffffffffffffffffff161415610ae6576040517f08c379a0000000000000000000000000000000000000000000000000000000008152600401610add9061302c565b60405180910390fd5b600360008373ffffffffffffffffffffffffffffffffffffffff1673ffffffffffffffffffffffffffffffffffffffff168152602001908152602001600020549050919050565b606060018054610b3c90613400565b80601f0160208091040260200160405190810160405280929190818152602001828054610b6890613400565b8015610bb55780601f10610b8a57610100808354040283529160200191610bb5565b820191906000526020600020905b815481529060010190602001808311610b9857829003601f168201915b5050505050905090565b610bd1610bca611443565b8383611a29565b5050565b60606000610c09610be584611849565b604051602001610bf59190612d74565b6040516020818303038152906040526119f6565b9050600b8054905081610c1c91906134ac565b9050600b8181548110610c58577f4e487b7100000000000000000000000000000000000000000000000000000000600052603260045260246000fd5b906000526020600020018054610c6d90613400565b80601f0160208091040260200160405190810160405280929190818152602001828054610c9990613400565b8015610ce65780601f10610cbb57610100808354040283529160200191610ce6565b820191906000526020600020905b815481529060010190602001808311610cc957829003601f168201915b5050505050915050919050565b600080610d006007611b96565b90508091505090565b610d1a610d14611443565b83611504565b610d59576040517f08c379a0000000000000000000000000000000000000000000000000000000008152600401610d509061312c565b60405180910390fd5b610d6584848484611ba4565b50505050565b60606000610d9f610d7b84611849565b604051602001610d8b9190612d52565b6040516020818303038152906040526119f6565b9050600c8054905081610db291906134ac565b9050600c8181548110610dee577f4e487b7100000000000000000000000000000000000000000000000000000000600052603260045260246000fd5b906000526020600020018054610e0390613400565b80601f0160208091040260200160405190810160405280929190818152602001828054610e2f90613400565b8015610e7c5780601f10610e5157610100808354040283529160200191610e7c565b820191906000526020600020905b815481529060010190602001808311610e5f57829003601f168201915b5050505050915050919050565b6060610e94826113d7565b610ed3576040517f08c379a0000000000000000000000000000000000000000000000000000000008152600401610eca906130ac565b60405180910390fd5b6000600660008481526020019081526020016000208054610ef390613400565b80601f0160208091040260200160405190810160405280929190818152602001828054610f1f90613400565b8015610f6c5780601f10610f4157610100808354040283529160200191610f6c565b820191906000526020600020905b815481529060010190602001808311610f4f57829003601f168201915b505050505090506000610f7d611c00565b9050600081511415610f93578192505050610fd6565b600082511115610fc8578082604051602001610fb0929190612c92565b60405160208183030381529060405292505050610fd6565b610fd184611c17565b925050505b919050565b6032610fe76007611b96565b10611027576040517f08c379a000000000000000000000000000000000000000000000000000000000815260040161101e9061314c565b60405180910390fd5b60006110336007611b96565b9050600061104082610767565b9050600061104d83610bd5565b9050600061105a84610d6b565b9050600083838360405160200161107393929190612cb6565b6040516020818303038152906040529050600061108f866108a5565b905060006008826009856040516020016110ac9493929190612ce7565b604051602081830303815290604052905060006110f1846110cc84611cbe565b6040516020016110dd929190612d96565b604051602081830303815290604052611cbe565b90506000816040516020016111069190612dfd565b60405160208183030381529060405290506111556040518060400160405280600d81526020017f0a2d2d2d2d2d2d2d2d2d2d2d2d000000000000000000000000000000000000008152506112d4565b61117d816040516020016111699190612d30565b6040516020818303038152906040526112d4565b6111bb6040518060400160405280600d81526020017f2d2d2d2d2d2d2d2d2d2d2d2d0a000000000000000000000000000000000000008152506112d4565b6111c5338a611e7c565b6111cf8982611e9a565b6111d96007611f0e565b6111fc604051806060016040528060258152602001613d06602591398a33611f24565b7febb98688741ffa4c7589bf325de30cf7becb63de567842e1ccdb6cb949fdc82c338a60405161122d929190612ea8565b60405180910390a1505050505050505050565b6000600560008473ffffffffffffffffffffffffffffffffffffffff1673ffffffffffffffffffffffffffffffffffffffff16815260200190815260200160002060008373ffffffffffffffffffffffffffffffffffffffff1673ffffffffffffffffffffffffffffffffffffffff16815260200190815260200160002060009054906101000a900460ff16905092915050565b61136a816040516024016112e89190612eec565b6040516020818303038152906040527f41304fac000000000000000000000000000000000000000000000000000000007bffffffffffffffffffffffffffffffffffffffffffffffffffffffff19166020820180517bffffffffffffffffffffffffffffffffffffffffffffffffffffffff8381831617835250505050611fc3565b50565b60007f01ffc9a7000000000000000000000000000000000000000000000000000000007bffffffffffffffffffffffffffffffffffffffffffffffffffffffff1916827bffffffffffffffffffffffffffffffffffffffffffffffffffffffff1916149050919050565b60008073ffffffffffffffffffffffffffffffffffffffff166002600084815260200190815260200160002060009054906101000a900473ffffffffffffffffffffffffffffffffffffffff1673ffffffffffffffffffffffffffffffffffffffff1614159050919050565b600033905090565b816004600083815260200190815260200160002060006101000a81548173ffffffffffffffffffffffffffffffffffffffff021916908373ffffffffffffffffffffffffffffffffffffffff160217905550808273ffffffffffffffffffffffffffffffffffffffff166114be836109c3565b73ffffffffffffffffffffffffffffffffffffffff167f8c5be1e5ebec7d5bd14f71427d1e84f3dd0314c0f7b2291e5b200ac8c7c3b92560405160405180910390a45050565b600061150f826113d7565b61154e576040517f08c379a000000000000000000000000000000000000000000000000000000000815260040161154590612fec565b60405180910390fd5b6000611559836109c3565b90508073ffffffffffffffffffffffffffffffffffffffff168473ffffffffffffffffffffffffffffffffffffffff1614806115c857508373ffffffffffffffffffffffffffffffffffffffff166115b08461056a565b73ffffffffffffffffffffffffffffffffffffffff16145b806115d957506115d88185611240565b5b91505092915050565b8273ffffffffffffffffffffffffffffffffffffffff16611602826109c3565b73ffffffffffffffffffffffffffffffffffffffff1614611658576040517f08c379a000000000000000000000000000000000000000000000000000000000815260040161164f90612f6c565b60405180910390fd5b600073ffffffffffffffffffffffffffffffffffffffff168273ffffffffffffffffffffffffffffffffffffffff1614156116c8576040517f08c379a00000000000000000000000000000000000000000000000000000000081526004016116bf90612fac565b60405180910390fd5b6116d3838383611fec565b6116de60008261144b565b6001600360008573ffffffffffffffffffffffffffffffffffffffff1673ffffffffffffffffffffffffffffffffffffffff168152602001908152602001600020600082825461172e9190613316565b925050819055506001600360008473ffffffffffffffffffffffffffffffffffffffff1673ffffffffffffffffffffffffffffffffffffffff16815260200190815260200160002060008282546117859190613235565b92505081905550816002600083815260200190815260200160002060006101000a81548173ffffffffffffffffffffffffffffffffffffffff021916908373ffffffffffffffffffffffffffffffffffffffff160217905550808273ffffffffffffffffffffffffffffffffffffffff168473ffffffffffffffffffffffffffffffffffffffff167fddf252ad1be2c89b69c2b068fc378daa952ba7f163c4a11628f55a4df523b3ef60405160405180910390a4611844838383611ff1565b505050565b60606000821415611891576040518060400160405280600181526020017f300000000000000000000000000000000000000000000000000000000000000081525090506119f1565b600082905060005b600082146118c35780806118ac90613463565b915050600a826118bc919061328b565b9150611899565b60008167ffffffffffffffff811115611905577f4e487b7100000000000000000000000000000000000000000000000000000000600052604160045260246000fd5b6040519080825280601f01601f1916602001820160405280156119375781602001600182028036833780820191505090505b5090505b600085146119ea576001826119509190613316565b9150600a8561195f91906134ac565b603061196b9190613235565b60f81b8183815181106119a7577f4e487b7100000000000000000000000000000000000000000000000000000000600052603260045260246000fd5b60200101907effffffffffffffffffffffffffffffffffffffffffffffffffffffffffffff1916908160001a905350600a856119e3919061328b565b945061193b565b8093505050505b919050565b600081604051602001611a099190612c7b565b6040516020818303038152906040528051906020012060001c9050919050565b8173ffffffffffffffffffffffffffffffffffffffff168373ffffffffffffffffffffffffffffffffffffffff161415611a98576040517f08c379a0000000000000000000000000000000000000000000000000000000008152600401611a8f90612fcc565b60405180910390fd5b80600560008573ffffffffffffffffffffffffffffffffffffffff1673ffffffffffffffffffffffffffffffffffffffff16815260200190815260200160002060008473ffffffffffffffffffffffffffffffffffffffff1673ffffffffffffffffffffffffffffffffffffffff16815260200190815260200160002060006101000a81548160ff0219169083151502179055508173ffffffffffffffffffffffffffffffffffffffff168373ffffffffffffffffffffffffffffffffffffffff167f17307eab39ab6107e8899845ad3d59bd9653f200f220920489ca2b5937696c3183604051611b899190612ed1565b60405180910390a3505050565b600081600001549050919050565b611baf8484846115e2565b611bbb84848484611ff6565b611bfa576040517f08c379a0000000000000000000000000000000000000000000000000000000008152600401611bf190612f4c565b60405180910390fd5b50505050565b606060405180602001604052806000815250905090565b6060611c22826113d7565b611c61576040517f08c379a0000000000000000000000000000000000000000000000000000000008152600401611c58906130ec565b60405180910390fd5b6000611c6b611c00565b90506000815111611c8b5760405180602001604052806000815250611cb6565b80611c9584611849565b604051602001611ca6929190612c92565b6040516020818303038152906040525b915050919050565b60606000825190506000811415611ce75760405180602001604052806000815250915050611e77565b60006003600283611cf89190613235565b611d02919061328b565b6004611d0e91906132bc565b90506000602082611d1f9190613235565b67ffffffffffffffff811115611d5e577f4e487b7100000000000000000000000000000000000000000000000000000000600052604160045260246000fd5b6040519080825280601f01601f191660200182016040528015611d905781602001600182028036833780820191505090505b5090506000604051806060016040528060408152602001613d2b604091399050600181016020830160005b86811015611e345760038101905062ffffff818a015116603f8160121c168401518060081b905060ff603f83600c1c1686015116810190508060081b905060ff603f8360061c1686015116810190508060081b905060ff603f831686015116810190508060e01b90508084526004840193505050611dbb565b506003860660018114611e4e5760028114611e5e57611e69565b613d3d60f01b6002830352611e69565b603d60f81b60018303525b508484525050819450505050505b919050565b611e9682826040518060200160405280600081525061218d565b5050565b611ea3826113d7565b611ee2576040517f08c379a0000000000000000000000000000000000000000000000000000000008152600401611ed99061306c565b60405180910390fd5b80600660008481526020019081526020016000209080519060200190611f099291906123e5565b505050565b6001816000016000828254019250508190555050565b611fbe838383604051602401611f3c93929190612f0e565b6040516020818303038152906040527fe3849f79000000000000000000000000000000000000000000000000000000007bffffffffffffffffffffffffffffffffffffffffffffffffffffffff19166020820180517bffffffffffffffffffffffffffffffffffffffffffffffffffffffff8381831617835250505050611fc3565b505050565b60008151905060006a636f6e736f6c652e6c6f679050602083016000808483855afa5050505050565b505050565b505050565b60006120178473ffffffffffffffffffffffffffffffffffffffff166121e8565b15612180578373ffffffffffffffffffffffffffffffffffffffff1663150b7a02612040611443565b8786866040518563ffffffff1660e01b81526004016120629493929190612e5c565b602060405180830381600087803b15801561207c57600080fd5b505af19250505080156120ad57506040513d601f19601f820116820180604052508101906120aa9190612729565b60015b612130573d80600081146120dd576040519150601f19603f3d011682016040523d82523d6000602084013e6120e2565b606091505b50600081511415612128576040517f08c379a000000000000000000000000000000000000000000000000000000000815260040161211f90612f4c565b60405180910390fd5b805181602001fd5b63150b7a0260e01b7bffffffffffffffffffffffffffffffffffffffffffffffffffffffff1916817bffffffffffffffffffffffffffffffffffffffffffffffffffffffff191614915050612185565b600190505b949350505050565b612197838361220b565b6121a46000848484611ff6565b6121e3576040517f08c379a00000000000000000000000000000000000000000000000000000000081526004016121da90612f4c565b60405180910390fd5b505050565b6000808273ffffffffffffffffffffffffffffffffffffffff163b119050919050565b600073ffffffffffffffffffffffffffffffffffffffff168273ffffffffffffffffffffffffffffffffffffffff16141561227b576040517f08c379a00000000000000000000000000000000000000000000000000000000081526004016122729061308c565b60405180910390fd5b612284816113d7565b156122c4576040517f08c379a00000000000000000000000000000000000000000000000000000000081526004016122bb90612f8c565b60405180910390fd5b6122d060008383611fec565b6001600360008473ffffffffffffffffffffffffffffffffffffffff1673ffffffffffffffffffffffffffffffffffffffff16815260200190815260200160002060008282546123209190613235565b92505081905550816002600083815260200190815260200160002060006101000a81548173ffffffffffffffffffffffffffffffffffffffff021916908373ffffffffffffffffffffffffffffffffffffffff160217905550808273ffffffffffffffffffffffffffffffffffffffff16600073ffffffffffffffffffffffffffffffffffffffff167fddf252ad1be2c89b69c2b068fc378daa952ba7f163c4a11628f55a4df523b3ef60405160405180910390a46123e160008383611ff1565b5050565b8280546123f190613400565b90600052602060002090601f016020900481019282612413576000855561245a565b82601f1061242c57805160ff191683800117855561245a565b8280016001018555821561245a579182015b8281111561245957825182559160200191906001019061243e565b5b509050612467919061246b565b5090565b5b8082111561248457600081600090555060010161246c565b5090565b600061249b612496846131ac565b613187565b9050828152602081018484840111156124b357600080fd5b6124be8482856133be565b509392505050565b6000813590506124d581613ca9565b92915050565b6000813590506124ea81613cc0565b92915050565b6000813590506124ff81613cd7565b92915050565b60008151905061251481613cd7565b92915050565b600082601f83011261252b57600080fd5b813561253b848260208601612488565b91505092915050565b60008135905061255381613cee565b92915050565b60006020828403121561256b57600080fd5b6000612579848285016124c6565b91505092915050565b6000806040838503121561259557600080fd5b60006125a3858286016124c6565b92505060206125b4858286016124c6565b9150509250929050565b6000806000606084860312156125d357600080fd5b60006125e1868287016124c6565b93505060206125f2868287016124c6565b925050604061260386828701612544565b9150509250925092565b6000806000806080858703121561262357600080fd5b6000612631878288016124c6565b9450506020612642878288016124c6565b935050604061265387828801612544565b925050606085013567ffffffffffffffff81111561267057600080fd5b61267c8782880161251a565b91505092959194509250565b6000806040838503121561269b57600080fd5b60006126a9858286016124c6565b92505060206126ba858286016124db565b9150509250929050565b600080604083850312156126d757600080fd5b60006126e5858286016124c6565b92505060206126f685828601612544565b9150509250929050565b60006020828403121561271257600080fd5b6000612720848285016124f0565b91505092915050565b60006020828403121561273b57600080fd5b600061274984828501612505565b91505092915050565b60006020828403121561276457600080fd5b600061277284828501612544565b91505092915050565b6127848161334a565b82525050565b6127938161335c565b82525050565b60006127a4826131f2565b6127ae8185613208565b93506127be8185602086016133cd565b6127c781613599565b840191505092915050565b60006127dd826131fd565b6127e78185613219565b93506127f78185602086016133cd565b61280081613599565b840191505092915050565b6000612816826131fd565b612820818561322a565b93506128308185602086016133cd565b80840191505092915050565b6000815461284981613400565b612853818661322a565b9450600182166000811461286e576001811461287f576128b2565b60ff198316865281860193506128b2565b612888856131dd565b60005b838110156128aa5781548189015260018201915060208101905061288b565b838801955050505b50505092915050565b60006128c860258361322a565b91506128d3826135aa565b602582019050919050565b60006128eb603283613219565b91506128f6826135f9565b604082019050919050565b600061290e602583613219565b915061291982613648565b604082019050919050565b6000612931601c83613219565b915061293c82613697565b602082019050919050565b6000612954600a8361322a565b915061295f826136c0565b600a82019050919050565b6000612977602483613219565b9150612982826136e9565b604082019050919050565b600061299a601983613219565b91506129a582613738565b602082019050919050565b60006129bd60638361322a565b91506129c882613761565b606382019050919050565b60006129e0600b8361322a565b91506129eb826137fc565b600b82019050919050565b6000612a03602c83613219565b9150612a0e82613825565b604082019050919050565b6000612a26600d8361322a565b9150612a3182613874565b600d82019050919050565b6000612a49603883613219565b9150612a548261389d565b604082019050919050565b6000612a6c602a83613219565b9150612a77826138ec565b604082019050919050565b6000612a8f602983613219565b9150612a9a8261393b565b604082019050919050565b6000612ab2602e83613219565b9150612abd8261398a565b604082019050919050565b6000612ad560028361322a565b9150612ae0826139d9565b600282019050919050565b6000612af8602083613219565b9150612b0382613a02565b602082019050919050565b6000612b1b603183613219565b9150612b2682613a2b565b604082019050919050565b6000612b3e602c83613219565b9150612b4982613a7a565b604082019050919050565b6000612b61602f83613219565b9150612b6c82613ac9565b604082019050919050565b6000612b84600a8361322a565b9150612b8f82613b18565b600a82019050919050565b6000612ba7602183613219565b9150612bb282613b41565b604082019050919050565b6000612bca600a8361322a565b9150612bd582613b90565b600a82019050919050565b6000612bed601d8361322a565b9150612bf882613bb9565b601d82019050919050565b6000612c10603183613219565b9150612c1b82613be2565b604082019050919050565b6000612c3360058361322a565b9150612c3e82613c31565b600582019050919050565b6000612c56602283613219565b9150612c6182613c5a565b604082019050919050565b612c75816133b4565b82525050565b6000612c87828461280b565b915081905092915050565b6000612c9e828561280b565b9150612caa828461280b565b91508190509392505050565b6000612cc2828661280b565b9150612cce828561280b565b9150612cda828461280b565b9150819050949350505050565b6000612cf3828761283c565b9150612cff828661280b565b9150612d0b828561283c565b9150612d17828461280b565b9150612d2282612a19565b915081905095945050505050565b6000612d3b826128bb565b9150612d47828461280b565b915081905092915050565b6000612d5d82612947565b9150612d69828461280b565b915081905092915050565b6000612d7f826129d3565b9150612d8b828461280b565b915081905092915050565b6000612da182612b77565b9150612dad828561280b565b9150612db8826129b0565b9150612dc4828461280b565b9150612dcf82612ac8565b91508190509392505050565b6000612de682612bbd565b9150612df2828461280b565b915081905092915050565b6000612e0882612be0565b9150612e14828461280b565b915081905092915050565b6000612e2a82612c26565b9150612e36828461280b565b915081905092915050565b6000602082019050612e56600083018461277b565b92915050565b6000608082019050612e71600083018761277b565b612e7e602083018661277b565b612e8b6040830185612c6c565b8181036060830152612e9d8184612799565b905095945050505050565b6000604082019050612ebd600083018561277b565b612eca6020830184612c6c565b9392505050565b6000602082019050612ee6600083018461278a565b92915050565b60006020820190508181036000830152612f0681846127d2565b905092915050565b60006060820190508181036000830152612f2881866127d2565b9050612f376020830185612c6c565b612f44604083018461277b565b949350505050565b60006020820190508181036000830152612f65816128de565b9050919050565b60006020820190508181036000830152612f8581612901565b9050919050565b60006020820190508181036000830152612fa581612924565b9050919050565b60006020820190508181036000830152612fc58161296a565b9050919050565b60006020820190508181036000830152612fe58161298d565b9050919050565b60006020820190508181036000830152613005816129f6565b9050919050565b6000602082019050818103600083015261302581612a3c565b9050919050565b6000602082019050818103600083015261304581612a5f565b9050919050565b6000602082019050818103600083015261306581612a82565b9050919050565b6000602082019050818103600083015261308581612aa5565b9050919050565b600060208201905081810360008301526130a581612aeb565b9050919050565b600060208201905081810360008301526130c581612b0e565b9050919050565b600060208201905081810360008301526130e581612b31565b9050919050565b6000602082019050818103600083015261310581612b54565b9050919050565b6000602082019050818103600083015261312581612b9a565b9050919050565b6000602082019050818103600083015261314581612c03565b9050919050565b6000602082019050818103600083015261316581612c49565b9050919050565b60006020820190506131816000830184612c6c565b92915050565b60006131916131a2565b905061319d8282613432565b919050565b6000604051905090565b600067ffffffffffffffff8211156131c7576131c661356a565b5b6131d082613599565b9050602081019050919050565b60008190508160005260206000209050919050565b600081519050919050565b600081519050919050565b600082825260208201905092915050565b600082825260208201905092915050565b600081905092915050565b6000613240826133b4565b915061324b836133b4565b9250827fffffffffffffffffffffffffffffffffffffffffffffffffffffffffffffffff038211156132805761327f6134dd565b5b828201905092915050565b6000613296826133b4565b91506132a1836133b4565b9250826132b1576132b061350c565b5b828204905092915050565b60006132c7826133b4565b91506132d2836133b4565b9250817fffffffffffffffffffffffffffffffffffffffffffffffffffffffffffffffff048311821515161561330b5761330a6134dd565b5b828202905092915050565b6000613321826133b4565b915061332c836133b4565b92508282101561333f5761333e6134dd565b5b828203905092915050565b600061335582613394565b9050919050565b60008115159050919050565b60007fffffffff0000000000000000000000000000000000000000000000000000000082169050919050565b600073ffffffffffffffffffffffffffffffffffffffff82169050919050565b6000819050919050565b82818337600083830152505050565b60005b838110156133eb5780820151818401526020810190506133d0565b838111156133fa576000848401525b50505050565b6000600282049050600182168061341857607f821691505b6020821081141561342c5761342b61353b565b5b50919050565b61343b82613599565b810181811067ffffffffffffffff8211171561345a5761345961356a565b5b80604052505050565b600061346e826133b4565b91507fffffffffffffffffffffffffffffffffffffffffffffffffffffffffffffffff8214156134a1576134a06134dd565b5b600182019050919050565b60006134b7826133b4565b91506134c2836133b4565b9250826134d2576134d161350c565b5b828206905092915050565b7f4e487b7100000000000000000000000000000000000000000000000000000000600052601160045260246000fd5b7f4e487b7100000000000000000000000000000000000000000000000000000000600052601260045260246000fd5b7f4e487b7100000000000000000000000000000000000000000000000000000000600052602260045260246000fd5b7f4e487b7100000000000000000000000000000000000000000000000000000000600052604160045260246000fd5b6000601f19601f8301169050919050565b7f68747470733a2f2f6e6674707265766965772e30786465762e636f6465732f3f60008201527f636f64653d000000000000000000000000000000000000000000000000000000602082015250565b7f4552433732313a207472616e7366657220746f206e6f6e20455243373231526560008201527f63656976657220696d706c656d656e7465720000000000000000000000000000602082015250565b7f4552433732313a207472616e736665722066726f6d20696e636f72726563742060008201527f6f776e6572000000000000000000000000000000000000000000000000000000602082015250565b7f4552433732313a20746f6b656e20616c7265616479206d696e74656400000000600082015250565b7f54484952445f574f524400000000000000000000000000000000000000000000600082015250565b7f4552433732313a207472616e7366657220746f20746865207a65726f2061646460008201527f7265737300000000000000000000000000000000000000000000000000000000602082015250565b7f4552433732313a20617070726f766520746f2063616c6c657200000000000000600082015250565b7f222c20226465736372697074696f6e223a20224120686967686c79206163636c60008201527f61696d656420636f6c6c656374696f6e206f6620737175617265732e222c202260208201527f696d616765223a2022646174613a696d6167652f7376672b786d6c3b6261736560408201527f36342c0000000000000000000000000000000000000000000000000000000000606082015250565b7f5345434f4e445f574f5244000000000000000000000000000000000000000000600082015250565b7f4552433732313a206f70657261746f7220717565727920666f72206e6f6e657860008201527f697374656e7420746f6b656e0000000000000000000000000000000000000000602082015250565b7f3c2f746578743e3c2f7376673e00000000000000000000000000000000000000600082015250565b7f4552433732313a20617070726f76652063616c6c6572206973206e6f74206f7760008201527f6e6572206e6f7220617070726f76656420666f7220616c6c0000000000000000602082015250565b7f4552433732313a2062616c616e636520717565727920666f7220746865207a6560008201527f726f206164647265737300000000000000000000000000000000000000000000602082015250565b7f4552433732313a206f776e657220717565727920666f72206e6f6e657869737460008201527f656e7420746f6b656e0000000000000000000000000000000000000000000000602082015250565b7f45524337323155524953746f726167653a2055524920736574206f66206e6f6e60008201527f6578697374656e7420746f6b656e000000000000000000000000000000000000602082015250565b7f227d000000000000000000000000000000000000000000000000000000000000600082015250565b7f4552433732313a206d696e7420746f20746865207a65726f2061646472657373600082015250565b7f45524337323155524953746f726167653a2055524920717565727920666f722060008201527f6e6f6e6578697374656e7420746f6b656e000000000000000000000000000000602082015250565b7f4552433732313a20617070726f76656420717565727920666f72206e6f6e657860008201527f697374656e7420746f6b656e0000000000000000000000000000000000000000602082015250565b7f4552433732314d657461646174613a2055524920717565727920666f72206e6f60008201527f6e6578697374656e7420746f6b656e0000000000000000000000000000000000602082015250565b7f7b226e616d65223a202200000000000000000000000000000000000000000000600082015250565b7f4552433732313a20617070726f76616c20746f2063757272656e74206f776e6560008201527f7200000000000000000000000000000000000000000000000000000000000000602082015250565b7f46495253545f574f524400000000000000000000000000000000000000000000600082015250565b7f646174613a6170706c69636174696f6e2f6a736f6e3b6261736536342c000000600082015250565b7f4552433732313a207472616e736665722063616c6c6572206973206e6f74206f60008201527f776e6572206e6f7220617070726f766564000000000000000000000000000000602082015250565b7f434f4c4f52000000000000000000000000000000000000000000000000000000600082015250565b7f4d6178206e756d626572206f66204e46547320616c7265616479206d696e746560008201527f6421000000000000000000000000000000000000000000000000000000000000602082015250565b613cb28161334a565b8114613cbd57600080fd5b50565b613cc98161335c565b8114613cd457600080fd5b50565b613ce081613368565b8114613ceb57600080fd5b50565b613cf7816133b4565b8114613d0257600080fd5b5056fe416e204e465420772f20494420257320686173206265656e206d696e74656420746f2025734142434445464748494a4b4c4d4e4f505152535455565758595a6162636465666768696a6b6c6d6e6f707172737475767778797a303132333435363738392b2fa2646970667358221220010c879aa888e25b14fa07b07117b065a383a2b37226573773fd4acdaf8bdb8564736f6c634300080100333c73766720786d6c6e733d27687474703a2f2f7777772e77332e6f72672f323030302f73766727207072657365727665417370656374526174696f3d27784d696e594d696e206d656574272076696577426f783d273020302033353020333530273e3c7374796c653e2e62617365207b2066696c6c3a2077686974653b20666f6e742d66616d696c793a2073657269663b20666f6e742d73697a653a20323470783b207d3c2f7374796c653e3c726563742077696474683d273130302527206865696768743d2731303025272066696c6c3d27272f3e3c7465787420783d273530252720793d273530252720636c6173733d27626173652720646f6d696e616e742d626173656c696e653d276d6964646c652720746578742d616e63686f723d276d6964646c65273e",
  "linkReferences": {},
  "deployedLinkReferences": {}
}